:020000020000FC
:100000001DC0FFFFFFFFFFFFFFFFFFFFFFFFFFFF21
:10001000FFFFFFFFFFFFFFFFFFFFFFFFFFFFFFFFF0
:10002000FFFFFFFFFFFFFFFFFFFFFFFFFFFFFFFFE0
:10003000FFFFFFFFFFFFFFFFFFFFFFFF07C01E6582
:10004000F8940FE50DBF02E00EBF13C0F894F0E086
:10005000EEE3659155914EE030E40591501B604010
:100060003A95D9F74A95C1F75030F1F76030E1F78A
:10007000E7CFEE27FF2703E007BFE895E0ECFFE1BD
:1000800041E703E007BFE895E054F0404A95C9F71F
:1000900000EC13E0480100EC1FE158014AE0C0E623
:1000A000D0E06E0130E4F401059109933A95E1F74F
:1000B000E058F0404F01E60130E4F5010990199055
:1000C00001E007BFE89532963250C1F7E054F040A6
:1000D00005E007BFE89507B700FDFDCFE60130E476
:1000E00005911991011709F0FFCF3A95C9F7E0582A
:1000F000F0405F014A9599F605E91FE00F931F93C1
:100100000895FFFFFFFFFFFFFFFFFFFFFFFFFFFF60
:10011000FFFFFFFFFFFFFFFFFFFFFFFFFFFFFFFFEF
:10012000FFFFFFFFFFFFFFFFFFFFFFFFFFFFFFFFDF
:10013000FFFFFFFFFFFFFFFFFFFFFFFFFFFFFFFFCF
:10014000FFFFFFFFFFFFFFFFFFFFFFFFFFFFFFFFBF
:10015000FFFFFFFFFFFFFFFFFFFFFFFFFFFFFFFFAF
:10016000FFFFFFFFFFFFFFFFFFFFFFFFFFFFFFFF9F
:10017000FFFFFFFFFFFFFFFFFFFFFFFFFFFFFFFF8F
:10018000F8940FE50DBF02E00EBF04B703FD18C1E0
:10019000B89AB998C19AC09AB19B12C1DBD0329675
:1001A0002591283008F428E00A95F1F7B19B05C0A5
:1001B0001A95D1F72A95C1F703C1AA27BB2705E0F5
:1001C000B19BFECFB199FECF1196B19BFDCF0A95A1
:1001D000C9F73D01DED025912F3F61F0BED0201739
:1001E000D1F30030F9F799D026F097D016F0A4D0CB
:1001F00005C0E6C0E0EBFFE130E10FD0EE27FF27BE
:1002000001E2B7D0AAD017D0F9CF7FD00EF408956D
:10021000A1D0689437D09ED030E40591AAD03A9509
:10022000E1F708957CD036F030E4F6DFE038D1F71E
:10023000FD31C1F70895033671F3033431F3063607
:1002400089F3063431F00536D1F1053409F443C0A1
:10025000B7C06BD05AD00EF4089578D008811981B8
:10026000005E1F4F28010FEB1EEC088319830BD093
:100270004CD02EF008D0FD31D9F7EF37C9F73DD07B
:10028000488259825FD062D00990199001E007BF7F
:10029000E89532963250C1F7E054F04005E007BFD0
:1002A000E89507B700FDFDCF51D0059119910117D1
:1002B00019F016F03AC0A2CF3A95B9F708952FD0A9
:1002C00096F030E4EEBBFFBBE09A0DB352D031960E
:1002D0003A95C1F7F4CF19D036F038D0099104D04F
:1002E0003A95E1F7F8CF08950DBBEEBBFFBBE29A5C
:1002F000E19AE199FECF319608952CD027D005914F
:1003000009933A95E1F726D021C007D02EF01ED0F0
:1003100024D009933A95E1F708950FE32AD01DD030
:10032000E894013209F068940895E0E8FDE1E054B2
:10033000F04008D0E1F70895F8DF0FEFD5DFF43093
:10034000E9F708D003E007BFE8950895C0E6D0E0DC
:1003500030E40895E0ECFFE10895C19AB199FECF31
:1003600018E01CD016D00695B19900681A95D1F7FF
:1003700010C00FD00CD018E000FD05D000FF07D052
:1003800006951A95C9F7B89AB998C09A02C0B89A52
:10039000C098D30152970000E8F70895D301B695AD
:1003A000A795F8CFFFFFFFFFFFFFFFFFFFFFFFFF56
:1003B000747362571BF01E930C20C00EFF010000E7
:00000001FF
