:020000020000FC
:100000001DC0FFFFFFFFFFFFFFFFFFFFFFFFFFFF21
:10001000FFFFFFFFFFFFFFFFFFFFFFFFFFFFFFFFF0
:10002000FFFFFFFFFFFFFFFFFFFFFFFFFFFFFFFFE0
:10003000FFFFFFFFFFFFFFFFFFFFFFFF07C01F9F47
:10004000F8940FE50DBF02E00EBF13C0F894F0E086
:10005000EEE3759165915EE040E40591601B7040B0
:100060004A95D9F75A95C1F76030F1F77030E1F74A
:10007000E7CFEE27FF2703E007BFE895E0ECFFE1BD
:1000800051E703E007BFE895E054F0405A95C9F7FF
:1000900000EC13E0480100EC1FE158015AE0C0E613
:1000A000D0E06E0140E4F401059109934A95E1F72F
:1000B000E058F0404F01E60140E4F5010990199045
:1000C00001E007BFE89532964250C1F7E054F04096
:1000D00005E007BFE89507B700FDFDCFE60140E466
:1000E00005911991011709F0FFCF4A95C9F7E0581A
:1000F000F0405F015A9599F606E91FE00F931F93B0
:100100000895FFFFFFFFFFFFFFFFFFFFFFFFFFFF60
:10011000FFFFFFFFFFFFFFFFFFFFFFFFFFFFFFFFEF
:10012000FFFFFFFFFFFFFFFFFFFFFFFFFFFFFFFFDF
:10013000FFFFFFFFFFFFFFFFFFFFFFFFFFFFFFFFCF
:10014000FFFFFFFFFFFFFFFFFFFFFFFFFFFFFFFFBF
:10015000FFFFFFFFFFFFFFFFFFFFFFFFFFFFFFFFAF
:10016000FFFFFFFFFFFFFFFFFFFFFFFFFFFFFFFF9F
:10017000FFFFFFFFFFFFFFFFFFFFFFFFFFFFFFFF8F
:10018000F8940FE50DBF02E00EBF04B703FD18C1E0
:10019000BB9ABC98C49AC39AB49903C01197E0F76C
:1001A0000FC1D9D03296B591A0E80A95F1F7B49B6A
:1001B00003C01197D0F704C1AA27BB2706E0B49962
:1001C000FECF1196B49BFDCF0A95C9F73D013FEFD5
:1001D000259123232F3F71F0C1D0003021F0021769
:1001E000B1F33327F5CF7BD026F079D016F0A5D028
:1001F00005C0E6C0E0EBFFE140E10FD0EE27FF27AE
:1002000001E2B8D0ABD030D0F9CF61D00EF4089570
:10021000A2D068946CD09FD040E40591ABD04A95B1
:10022000E1F708955ED02EF0F7DFE038D9F7FD3121
:10023000C9F708957BD04BD00EF4089588D008817B
:100240001981005E1F4F28010FEB1EEC08831983F4
:100250004FD03DD02EF04CD0FD31D9F7EF37C9F754
:100260002ED04882598243C00336A9F2033469F282
:100270000636C1F20634F1F2053619F0053469F09C
:100280009FC02FD096F040E4EEBBFFBBE09A0DB3C9
:1002900071D031964A95C1F7F4CF19D036F057D0C6
:1002A000099104D04A95E1F7F8CF08950DBBEEBB54
:1002B000FFBBE29AE19AE199FECF319608954BD0C7
:1002C00046D0059109934A95E1F745D040C007D043
:1002D0002EF03DD043D009934A95E1F708950FE3FE
:1002E00049D03CD0E894013209F0689408952BD0AD
:1002F0002ED00990199001E007BFE8953296425040
:10030000C1F7E054F04005E007BFE89507B700FDEE
:10031000FDCF1DD005911991011729F026F001E2BA
:1003200029D004D0FFCF4A95A9F70895E0E8FDE170
:10033000E054F04008D0E1F70895F8DF0FEFB6DFA2
:10034000F430E9F708D003E007BFE8950895C0E668
:10035000D0E040E40895E0ECFFE10895C49AB49938
:10036000FECF18E01CD016D00695B49900681A95F7
:10037000D1F710C00FD00CD018E000FD05D000FF61
:1003800007D006951A95C9F7BB9ABC98C39A02C0C4
:10039000BB9AC398D30158970000E8F70895D3019A
:1003A000B695A795F8CFFFFFFFFFFFFFFFFFFFFF09
:1003B000747362511EF01E930B20C00EFF010000EB
:00000001FF
